{
  "_format": "hh-sol-artifact-1",
  "contractName": "NeuroMarketV2",
  "sourceName": "contracts/NeuroMarketV2.sol",
  "abi": [
    {
      "inputs": [
        {
          "internalType": "address",
          "name": "_neuroTokenAddress",
          "type": "address"
        }
      ],
      "stateMutability": "nonpayable",
      "type": "constructor"
    },
    {
      "inputs": [],
      "name": "ReentrancyGuardReentrantCall",
      "type": "error"
    },
    {
      "anonymous": false,
      "inputs": [
        {
          "indexed": true,
          "internalType": "address",
          "name": "dataToken",
          "type": "address"
        },
        {
          "indexed": true,
          "internalType": "address",
          "name": "publisher",
          "type": "address"
        },
        {
          "indexed": false,
          "internalType": "uint256",
          "name": "price",
          "type": "uint256"
        }
      ],
      "name": "DatasetPublished",
      "type": "event"
    },
    {
      "anonymous": false,
      "inputs": [
        {
          "indexed": true,
          "internalType": "address",
          "name": "buyer",
          "type": "address"
        },
        {
          "indexed": false,
          "internalType": "string",
          "name": "dataTokenURI",
          "type": "string"
        }
      ],
      "name": "FilePurchased",
      "type": "event"
    },
    {
      "inputs": [],
      "name": "STAKE_AMOUNT",
      "outputs": [
        {
          "internalType": "uint256",
          "name": "",
          "type": "uint256"
        }
      ],
      "stateMutability": "view",
      "type": "function"
    },
    {
      "inputs": [
        {
          "internalType": "uint256",
          "name": "",
          "type": "uint256"
        }
      ],
      "name": "allDatasets",
      "outputs": [
        {
          "internalType": "address",
          "name": "",
          "type": "address"
        }
      ],
      "stateMutability": "view",
      "type": "function"
    },
    {
      "inputs": [
        {
          "internalType": "address",
          "name": "_dataTokenAddress",
          "type": "address"
        }
      ],
      "name": "buyAccess",
      "outputs": [],
      "stateMutability": "nonpayable",
      "type": "function"
    },
    {
      "inputs": [],
      "name": "getAllDatasets",
      "outputs": [
        {
          "internalType": "address[]",
          "name": "",
          "type": "address[]"
        }
      ],
      "stateMutability": "view",
      "type": "function"
    },
    {
      "inputs": [
        {
          "internalType": "address",
          "name": "",
          "type": "address"
        }
      ],
      "name": "listings",
      "outputs": [
        {
          "internalType": "address",
          "name": "dataTokenAddress",
          "type": "address"
        },
        {
          "internalType": "address",
          "name": "publisher",
          "type": "address"
        },
        {
          "internalType": "uint256",
          "name": "price",
          "type": "uint256"
        },
        {
          "internalType": "bool",
          "name": "isActive",
          "type": "bool"
        },
        {
          "internalType": "uint256",
          "name": "stakedAmount",
          "type": "uint256"
        },
        {
          "internalType": "string",
          "name": "ipfsHash",
          "type": "string"
        }
      ],
      "stateMutability": "view",
      "type": "function"
    },
    {
      "inputs": [],
      "name": "neuroToken",
      "outputs": [
        {
          "internalType": "contract IERC20",
          "name": "",
          "type": "address"
        }
      ],
      "stateMutability": "view",
      "type": "function"
    },
    {
      "inputs": [
        {
          "internalType": "string",
          "name": "_ipfsHash",
          "type": "string"
        },
        {
          "internalType": "string",
          "name": "_name",
          "type": "string"
        },
        {
          "internalType": "string",
          "name": "_symbol",
          "type": "string"
        },
        {
          "internalType": "uint256",
          "name": "_price",
          "type": "uint256"
        }
      ],
      "name": "publishDataset",
      "outputs": [],
      "stateMutability": "nonpayable",
      "type": "function"
    }
  ],
  "bytecode": "0x60806040523480156200001157600080fd5b506040516200395d3803806200395d8339818101604052810190620000379190620000f1565b600160008190555080600160006101000a81548173ffffffffffffffffffffffffffffffffffffffff021916908373ffffffffffffffffffffffffffffffffffffffff1602179055505062000123565b600080fd5b600073ffffffffffffffffffffffffffffffffffffffff82169050919050565b6000620000b9826200008c565b9050919050565b620000cb81620000ac565b8114620000d757600080fd5b50565b600081519050620000eb81620000c0565b92915050565b6000602082840312156200010a576200010962000087565b5b60006200011a84828501620000da565b91505092915050565b61382a80620001336000396000f3fe60806040523480156200001157600080fd5b5060043610620000885760003560e01c8063a1cd59c31162000063578063a1cd59c3146200010a578063c03d6a3c1462000140578063cb7356411462000160578063faf5625f14620001825762000088565b80634d72cd12146200008d57806358ecfb1d14620000af57806365d96c8214620000cf575b600080fd5b62000097620001a4565b604051620000a6919062000cdd565b60405180910390f35b620000cd6004803603810190620000c7919062000d46565b62000234565b005b620000ed6004803603810190620000e7919062000d46565b620005a7565b604051620001019695949392919062000e5b565b60405180910390f35b62000128600480360381019062000122919062000f00565b620006c0565b60405162000137919062000f32565b60405180910390f35b6200015e6004803603810190620001589190620010a0565b62000700565b005b6200016a62000b49565b604051620001799190620011da565b60405180910390f35b6200018c62000b6f565b6040516200019b9190620011f7565b60405180910390f35b606060038054806020026020016040519081016040528092919081815260200182805480156200022a57602002820191906000526020600020905b8160009054906101000a900473ffffffffffffffffffffffffffffffffffffffff1673ffffffffffffffffffffffffffffffffffffffff1681526020019060010190808311620001df575b5050505050905090565b6200023e62000b7c565b6000600260008373ffffffffffffffffffffffffffffffffffffffff1673ffffffffffffffffffffffffffffffffffffffff1681526020019081526020016000206040518060c00160405290816000820160009054906101000a900473ffffffffffffffffffffffffffffffffffffffff1673ffffffffffffffffffffffffffffffffffffffff1673ffffffffffffffffffffffffffffffffffffffff1681526020016001820160009054906101000a900473ffffffffffffffffffffffffffffffffffffffff1673ffffffffffffffffffffffffffffffffffffffff1673ffffffffffffffffffffffffffffffffffffffff168152602001600282015481526020016003820160009054906101000a900460ff1615151515815260200160048201548152602001600582018054620003779062001243565b80601f0160208091040260200160405190810160405280929190818152602001828054620003a59062001243565b8015620003f65780601f10620003ca57610100808354040283529160200191620003f6565b820191906000526020600020905b815481529060010190602001808311620003d857829003601f168201915b5050505050815250509050806060015162000448576040517f08c379a00000000000000000000000000000000000000000000000000000000081526004016200043f90620012c8565b60405180910390fd5b600081604001519050600082602001519050600160009054906101000a900473ffffffffffffffffffffffffffffffffffffffff1673ffffffffffffffffffffffffffffffffffffffff166323b872dd3383856040518463ffffffff1660e01b8152600401620004bb93929190620012ea565b6020604051808303816000875af1158015620004db573d6000803e3d6000fd5b505050506040513d601f19601f8201168201806040525081019062000501919062001358565b62000543576040517f08c379a00000000000000000000000000000000000000000000000000000000081526004016200053a90620013da565b60405180910390fd5b3373ffffffffffffffffffffffffffffffffffffffff167f85c0e6c4761ddc10b64021980d69096e9a25f37126fafe72f4296427eabbe4808460a001516040516200058f9190620013fc565b60405180910390a2505050620005a462000bc3565b50565b60026020528060005260406000206000915090508060000160009054906101000a900473ffffffffffffffffffffffffffffffffffffffff16908060010160009054906101000a900473ffffffffffffffffffffffffffffffffffffffff16908060020154908060030160009054906101000a900460ff1690806004015490806005018054620006379062001243565b80601f0160208091040260200160405190810160405280929190818152602001828054620006659062001243565b8015620006b65780601f106200068a57610100808354040283529160200191620006b6565b820191906000526020600020905b8154815290600101906020018083116200069857829003601f168201915b5050505050905086565b60038181548110620006d157600080fd5b906000526020600020016000915054906101000a900473ffffffffffffffffffffffffffffffffffffffff1681565b6200070a62000b7c565b6802b5e3af16b1880000600160009054906101000a900473ffffffffffffffffffffffffffffffffffffffff1673ffffffffffffffffffffffffffffffffffffffff166370a08231336040518263ffffffff1660e01b815260040162000771919062000f32565b602060405180830381865afa1580156200078f573d6000803e3d6000fd5b505050506040513d601f19601f82011682018060405250810190620007b5919062001437565b1015620007f9576040517f08c379a0000000000000000000000000000000000000000000000000000000008152600401620007f090620014b9565b60405180910390fd5b600160009054906101000a900473ffffffffffffffffffffffffffffffffffffffff1673ffffffffffffffffffffffffffffffffffffffff166323b872dd33306802b5e3af16b18800006040518463ffffffff1660e01b81526004016200086393929190620012ea565b6020604051808303816000875af115801562000883573d6000803e3d6000fd5b505050506040513d601f19601f82011682018060405250810190620008a9919062001358565b50600083838633604051620008be9062000bcd565b620008cd9493929190620014db565b604051809103906000f080158015620008ea573d6000803e3d6000fd5b5090506040518060c001604052808273ffffffffffffffffffffffffffffffffffffffff1681526020013373ffffffffffffffffffffffffffffffffffffffff1681526020018381526020016001151581526020016802b5e3af16b1880000815260200186815250600260008373ffffffffffffffffffffffffffffffffffffffff1673ffffffffffffffffffffffffffffffffffffffff16815260200190815260200160002060008201518160000160006101000a81548173ffffffffffffffffffffffffffffffffffffffff021916908373ffffffffffffffffffffffffffffffffffffffff16021790555060208201518160010160006101000a81548173ffffffffffffffffffffffffffffffffffffffff021916908373ffffffffffffffffffffffffffffffffffffffff1602179055506040820151816002015560608201518160030160006101000a81548160ff0219169083151502179055506080820151816004015560a082015181600501908162000a6a919062001705565b509050506003819080600181540180825580915050600190039060005260206000200160009091909190916101000a81548173ffffffffffffffffffffffffffffffffffffffff021916908373ffffffffffffffffffffffffffffffffffffffff1602179055503373ffffffffffffffffffffffffffffffffffffffff168173ffffffffffffffffffffffffffffffffffffffff167f05309da85515b9ffc843a1a7577f7db99fc12825d02d2d9e5749237a50c6f32b8460405162000b309190620011f7565b60405180910390a35062000b4362000bc3565b50505050565b600160009054906101000a900473ffffffffffffffffffffffffffffffffffffffff1681565b6802b5e3af16b188000081565b60026000540362000bb9576040517f3ee5aeb500000000000000000000000000000000000000000000000000000000815260040160405180910390fd5b6002600081905550565b6001600081905550565b61200880620017ed83390190565b600081519050919050565b600082825260208201905092915050565b6000819050602082019050919050565b600073ffffffffffffffffffffffffffffffffffffffff82169050919050565b600062000c348262000c07565b9050919050565b62000c468162000c27565b82525050565b600062000c5a838362000c3b565b60208301905092915050565b6000602082019050919050565b600062000c808262000bdb565b62000c8c818562000be6565b935062000c998362000bf7565b8060005b8381101562000cd057815162000cb4888262000c4c565b975062000cc18362000c66565b92505060018101905062000c9d565b5085935050505092915050565b6000602082019050818103600083015262000cf9818462000c73565b905092915050565b6000604051905090565b600080fd5b600080fd5b62000d208162000c27565b811462000d2c57600080fd5b50565b60008135905062000d408162000d15565b92915050565b60006020828403121562000d5f5762000d5e62000d0b565b5b600062000d6f8482850162000d2f565b91505092915050565b62000d838162000c27565b82525050565b6000819050919050565b62000d9e8162000d89565b82525050565b60008115159050919050565b62000dbb8162000da4565b82525050565b600081519050919050565b600082825260208201905092915050565b60005b8381101562000dfd57808201518184015260208101905062000de0565b60008484015250505050565b6000601f19601f8301169050919050565b600062000e278262000dc1565b62000e33818562000dcc565b935062000e4581856020860162000ddd565b62000e508162000e09565b840191505092915050565b600060c08201905062000e72600083018962000d78565b62000e81602083018862000d78565b62000e90604083018762000d93565b62000e9f606083018662000db0565b62000eae608083018562000d93565b81810360a083015262000ec2818462000e1a565b9050979650505050505050565b62000eda8162000d89565b811462000ee657600080fd5b50565b60008135905062000efa8162000ecf565b92915050565b60006020828403121562000f195762000f1862000d0b565b5b600062000f298482850162000ee9565b91505092915050565b600060208201905062000f49600083018462000d78565b92915050565b600080fd5b600080fd5b7f4e487b7100000000000000000000000000000000000000000000000000000000600052604160045260246000fd5b62000f938262000e09565b810181811067ffffffffffffffff8211171562000fb55762000fb462000f59565b5b80604052505050565b600062000fca62000d01565b905062000fd8828262000f88565b919050565b600067ffffffffffffffff82111562000ffb5762000ffa62000f59565b5b620010068262000e09565b9050602081019050919050565b82818337600083830152505050565b600062001039620010338462000fdd565b62000fbe565b90508281526020810184848401111562001058576200105762000f54565b5b6200106584828562001013565b509392505050565b600082601f83011262001085576200108462000f4f565b5b81356200109784826020860162001022565b91505092915050565b60008060008060808587031215620010bd57620010bc62000d0b565b5b600085013567ffffffffffffffff811115620010de57620010dd62000d10565b5b620010ec878288016200106d565b945050602085013567ffffffffffffffff81111562001110576200110f62000d10565b5b6200111e878288016200106d565b935050604085013567ffffffffffffffff81111562001142576200114162000d10565b5b62001150878288016200106d565b9250506060620011638782880162000ee9565b91505092959194509250565b6000819050919050565b60006200119a620011946200118e8462000c07565b6200116f565b62000c07565b9050919050565b6000620011ae8262001179565b9050919050565b6000620011c282620011a1565b9050919050565b620011d481620011b5565b82525050565b6000602082019050620011f16000830184620011c9565b92915050565b60006020820190506200120e600083018462000d93565b92915050565b7f4e487b7100000000000000000000000000000000000000000000000000000000600052602260045260246000fd5b600060028204905060018216806200125c57607f821691505b60208210810362001272576200127162001214565b5b50919050565b7f44617461736574206e6f74206163746976650000000000000000000000000000600082015250565b6000620012b060128362000dcc565b9150620012bd8262001278565b602082019050919050565b60006020820190508181036000830152620012e381620012a1565b9050919050565b600060608201905062001301600083018662000d78565b62001310602083018562000d78565b6200131f604083018462000d93565b949350505050565b620013328162000da4565b81146200133e57600080fd5b50565b600081519050620013528162001327565b92915050565b60006020828403121562001371576200137062000d0b565b5b6000620013818482850162001341565b91505092915050565b7f5061796d656e74206661696c6564000000000000000000000000000000000000600082015250565b6000620013c2600e8362000dcc565b9150620013cf826200138a565b602082019050919050565b60006020820190508181036000830152620013f581620013b3565b9050919050565b6000602082019050818103600083015262001418818462000e1a565b905092915050565b600081519050620014318162000ecf565b92915050565b60006020828403121562001450576200144f62000d0b565b5b6000620014608482850162001420565b91505092915050565b7f496e73756666696369656e74204e524f20666f72207374616b65000000000000600082015250565b6000620014a1601a8362000dcc565b9150620014ae8262001469565b602082019050919050565b60006020820190508181036000830152620014d48162001492565b9050919050565b60006080820190508181036000830152620014f7818762000e1a565b905081810360208301526200150d818662000e1a565b9050818103604083015262001523818562000e1a565b905062001534606083018462000d78565b95945050505050565b60008190508160005260206000209050919050565b60006020601f8301049050919050565b600082821b905092915050565b600060088302620015a17fffffffffffffffffffffffffffffffffffffffffffffffffffffffffffffffff8262001562565b620015ad868362001562565b95508019841693508086168417925050509392505050565b6000620015e6620015e0620015da8462000d89565b6200116f565b62000d89565b9050919050565b6000819050919050565b6200160283620015c5565b6200161a6200161182620015ed565b8484546200156f565b825550505050565b600090565b6200163162001622565b6200163e818484620015f7565b505050565b5b8181101562001666576200165a60008262001627565b60018101905062001644565b5050565b601f821115620016b5576200167f816200153d565b6200168a8462001552565b810160208510156200169a578190505b620016b2620016a98562001552565b83018262001643565b50505b505050565b600082821c905092915050565b6000620016da60001984600802620016ba565b1980831691505092915050565b6000620016f58383620016c7565b9150826002028217905092915050565b620017108262000dc1565b67ffffffffffffffff8111156200172c576200172b62000f59565b5b62001738825462001243565b620017458282856200166a565b600060209050601f8311600181146200177d576000841562001768578287015190505b620017748582620016e7565b865550620017e4565b601f1984166200178d866200153d565b60005b82811015620017b75784890151825560018201915060208501945060208101905062001790565b86831015620017d75784890151620017d3601f891682620016c7565b8355505b6001600288020188555050505b50505050505056fe60806040523480156200001157600080fd5b506040516200200838038062002008833981810160405281019062000037919062000705565b33848481600390816200004b919062000a1f565b5080600490816200005d919062000a1f565b505050600073ffffffffffffffffffffffffffffffffffffffff168173ffffffffffffffffffffffffffffffffffffffff1603620000d55760006040517f1e4fbdf7000000000000000000000000000000000000000000000000000000008152600401620000cc919062000b17565b60405180910390fd5b620000e6816200018160201b60201c565b508160069081620000f8919062000a1f565b5080600760006101000a81548173ffffffffffffffffffffffffffffffffffffffff021916908373ffffffffffffffffffffffffffffffffffffffff16021790555062000177816200014f6200024760201b60201c565b600a6200015d919062000cc4565b60646200016b919062000d15565b6200025060201b60201c565b5050505062000e06565b6000600560009054906101000a900473ffffffffffffffffffffffffffffffffffffffff16905081600560006101000a81548173ffffffffffffffffffffffffffffffffffffffff021916908373ffffffffffffffffffffffffffffffffffffffff1602179055508173ffffffffffffffffffffffffffffffffffffffff168173ffffffffffffffffffffffffffffffffffffffff167f8be0079c531659141344cd1fd0a4f28419497f9722a3daafe3b4186f6b6457e060405160405180910390a35050565b60006012905090565b600073ffffffffffffffffffffffffffffffffffffffff168273ffffffffffffffffffffffffffffffffffffffff1603620002c55760006040517fec442f05000000000000000000000000000000000000000000000000000000008152600401620002bc919062000b17565b60405180910390fd5b620002d960008383620002dd60201b60201c565b5050565b600073ffffffffffffffffffffffffffffffffffffffff168373ffffffffffffffffffffffffffffffffffffffff16036200033357806002600082825462000326919062000d60565b9250508190555062000409565b60008060008573ffffffffffffffffffffffffffffffffffffffff1673ffffffffffffffffffffffffffffffffffffffff16815260200190815260200160002054905081811015620003c2578381836040517fe450d38c000000000000000000000000000000000000000000000000000000008152600401620003b99392919062000dac565b60405180910390fd5b8181036000808673ffffffffffffffffffffffffffffffffffffffff1673ffffffffffffffffffffffffffffffffffffffff16815260200190815260200160002081905550505b600073ffffffffffffffffffffffffffffffffffffffff168273ffffffffffffffffffffffffffffffffffffffff1603620004545780600260008282540392505081905550620004a1565b806000808473ffffffffffffffffffffffffffffffffffffffff1673ffffffffffffffffffffffffffffffffffffffff168152602001908152602001600020600082825401925050819055505b8173ffffffffffffffffffffffffffffffffffffffff168373ffffffffffffffffffffffffffffffffffffffff167fddf252ad1be2c89b69c2b068fc378daa952ba7f163c4a11628f55a4df523b3ef8360405162000500919062000de9565b60405180910390a3505050565b6000604051905090565b600080fd5b600080fd5b600080fd5b600080fd5b6000601f19601f8301169050919050565b7f4e487b7100000000000000000000000000000000000000000000000000000000600052604160045260246000fd5b62000576826200052b565b810181811067ffffffffffffffff821117156200059857620005976200053c565b5b80604052505050565b6000620005ad6200050d565b9050620005bb82826200056b565b919050565b600067ffffffffffffffff821115620005de57620005dd6200053c565b5b620005e9826200052b565b9050602081019050919050565b60005b8381101562000616578082015181840152602081019050620005f9565b60008484015250505050565b6000620006396200063384620005c0565b620005a1565b90508281526020810184848401111562000658576200065762000526565b5b62000665848285620005f6565b509392505050565b600082601f83011262000685576200068462000521565b5b81516200069784826020860162000622565b91505092915050565b600073ffffffffffffffffffffffffffffffffffffffff82169050919050565b6000620006cd82620006a0565b9050919050565b620006df81620006c0565b8114620006eb57600080fd5b50565b600081519050620006ff81620006d4565b92915050565b6000806000806080858703121562000722576200072162000517565b5b600085015167ffffffffffffffff8111156200074357620007426200051c565b5b62000751878288016200066d565b945050602085015167ffffffffffffffff8111156200077557620007746200051c565b5b62000783878288016200066d565b935050604085015167ffffffffffffffff811115620007a757620007a66200051c565b5b620007b5878288016200066d565b9250506060620007c887828801620006ee565b91505092959194509250565b600081519050919050565b7f4e487b7100000000000000000000000000000000000000000000000000000000600052602260045260246000fd5b600060028204905060018216806200082757607f821691505b6020821081036200083d576200083c620007df565b5b50919050565b60008190508160005260206000209050919050565b60006020601f8301049050919050565b600082821b905092915050565b600060088302620008a77fffffffffffffffffffffffffffffffffffffffffffffffffffffffffffffffff8262000868565b620008b3868362000868565b95508019841693508086168417925050509392505050565b6000819050919050565b6000819050919050565b600062000900620008fa620008f484620008cb565b620008d5565b620008cb565b9050919050565b6000819050919050565b6200091c83620008df565b620009346200092b8262000907565b84845462000875565b825550505050565b600090565b6200094b6200093c565b6200095881848462000911565b505050565b5b8181101562000980576200097460008262000941565b6001810190506200095e565b5050565b601f821115620009cf57620009998162000843565b620009a48462000858565b81016020851015620009b4578190505b620009cc620009c38562000858565b8301826200095d565b50505b505050565b600082821c905092915050565b6000620009f460001984600802620009d4565b1980831691505092915050565b600062000a0f8383620009e1565b9150826002028217905092915050565b62000a2a82620007d4565b67ffffffffffffffff81111562000a465762000a456200053c565b5b62000a5282546200080e565b62000a5f82828562000984565b600060209050601f83116001811462000a97576000841562000a82578287015190505b62000a8e858262000a01565b86555062000afe565b601f19841662000aa78662000843565b60005b8281101562000ad15784890151825560018201915060208501945060208101905062000aaa565b8683101562000af1578489015162000aed601f891682620009e1565b8355505b6001600288020188555050505b505050505050565b62000b1181620006c0565b82525050565b600060208201905062000b2e600083018462000b06565b92915050565b7f4e487b7100000000000000000000000000000000000000000000000000000000600052601160045260246000fd5b60008160011c9050919050565b6000808291508390505b600185111562000bc25780860481111562000b9a5762000b9962000b34565b5b600185161562000baa5780820291505b808102905062000bba8562000b63565b945062000b7a565b94509492505050565b60008262000bdd576001905062000cb0565b8162000bed576000905062000cb0565b816001811462000c06576002811462000c115762000c47565b600191505062000cb0565b60ff84111562000c265762000c2562000b34565b5b8360020a91508482111562000c405762000c3f62000b34565b5b5062000cb0565b5060208310610133831016604e8410600b841016171562000c815782820a90508381111562000c7b5762000c7a62000b34565b5b62000cb0565b62000c90848484600162000b70565b9250905081840481111562000caa5762000ca962000b34565b5b81810290505b9392505050565b600060ff82169050919050565b600062000cd182620008cb565b915062000cde8362000cb7565b925062000d0d7fffffffffffffffffffffffffffffffffffffffffffffffffffffffffffffffff848462000bcb565b905092915050565b600062000d2282620008cb565b915062000d2f83620008cb565b925082820262000d3f81620008cb565b9150828204841483151762000d595762000d5862000b34565b5b5092915050565b600062000d6d82620008cb565b915062000d7a83620008cb565b925082820190508082111562000d955762000d9462000b34565b5b92915050565b62000da681620008cb565b82525050565b600060608201905062000dc3600083018662000b06565b62000dd2602083018562000d9b565b62000de1604083018462000d9b565b949350505050565b600060208201905062000e00600083018462000d9b565b92915050565b6111f28062000e166000396000f3fe608060405234801561001057600080fd5b50600436106100ea5760003560e01c8063715018a61161008c57806395d89b411161006657806395d89b411461023d578063a9059cbb1461025b578063dd62ed3e1461028b578063f2fde38b146102bb576100ea565b8063715018a6146101f75780638c72c54e146102015780638da5cb5b1461021f576100ea565b80631b3012a3116100c85780631b3012a31461015b57806323b872dd14610179578063313ce567146101a957806370a08231146101c7576100ea565b806306fdde03146100ef578063095ea7b31461010d57806318160ddd1461013d575b600080fd5b6100f76102d7565b6040516101049190610e46565b60405180910390f35b61012760048036038101906101229190610f01565b610369565b6040516101349190610f5c565b60405180910390f35b61014561038c565b6040516101529190610f86565b60405180910390f35b610163610396565b6040516101709190610e46565b60405180910390f35b610193600480360381019061018e9190610fa1565b610424565b6040516101a09190610f5c565b60405180910390f35b6101b1610453565b6040516101be9190611010565b60405180910390f35b6101e160048036038101906101dc919061102b565b61045c565b6040516101ee9190610f86565b60405180910390f35b6101ff6104a4565b005b6102096104b8565b6040516102169190611067565b60405180910390f35b6102276104de565b6040516102349190611067565b60405180910390f35b610245610508565b6040516102529190610e46565b60405180910390f35b61027560048036038101906102709190610f01565b61059a565b6040516102829190610f5c565b60405180910390f35b6102a560048036038101906102a09190611082565b6105bd565b6040516102b29190610f86565b60405180910390f35b6102d560048036038101906102d0919061102b565b610644565b005b6060600380546102e6906110f1565b80601f0160208091040260200160405190810160405280929190818152602001828054610312906110f1565b801561035f5780601f106103345761010080835404028352916020019161035f565b820191906000526020600020905b81548152906001019060200180831161034257829003601f168201915b5050505050905090565b6000806103746106ca565b90506103818185856106d2565b600191505092915050565b6000600254905090565b600680546103a3906110f1565b80601f01602080910402602001604051908101604052809291908181526020018280546103cf906110f1565b801561041c5780601f106103f15761010080835404028352916020019161041c565b820191906000526020600020905b8154815290600101906020018083116103ff57829003601f168201915b505050505081565b60008061042f6106ca565b905061043c8582856106e4565b610447858585610779565b60019150509392505050565b60006012905090565b60008060008373ffffffffffffffffffffffffffffffffffffffff1673ffffffffffffffffffffffffffffffffffffffff168152602001908152602001600020549050919050565b6104ac61086d565b6104b660006108f4565b565b600760009054906101000a900473ffffffffffffffffffffffffffffffffffffffff1681565b6000600560009054906101000a900473ffffffffffffffffffffffffffffffffffffffff16905090565b606060048054610517906110f1565b80601f0160208091040260200160405190810160405280929190818152602001828054610543906110f1565b80156105905780601f1061056557610100808354040283529160200191610590565b820191906000526020600020905b81548152906001019060200180831161057357829003601f168201915b5050505050905090565b6000806105a56106ca565b90506105b2818585610779565b600191505092915050565b6000600160008473ffffffffffffffffffffffffffffffffffffffff1673ffffffffffffffffffffffffffffffffffffffff16815260200190815260200160002060008373ffffffffffffffffffffffffffffffffffffffff1673ffffffffffffffffffffffffffffffffffffffff16815260200190815260200160002054905092915050565b61064c61086d565b600073ffffffffffffffffffffffffffffffffffffffff168173ffffffffffffffffffffffffffffffffffffffff16036106be5760006040517f1e4fbdf70000000000000000000000000000000000000000000000000000000081526004016106b59190611067565b60405180910390fd5b6106c7816108f4565b50565b600033905090565b6106df83838360016109ba565b505050565b60006106f084846105bd565b90507fffffffffffffffffffffffffffffffffffffffffffffffffffffffffffffffff8110156107735781811015610763578281836040517ffb8f41b200000000000000000000000000000000000000000000000000000000815260040161075a93929190611122565b60405180910390fd5b610772848484840360006109ba565b5b50505050565b600073ffffffffffffffffffffffffffffffffffffffff168373ffffffffffffffffffffffffffffffffffffffff16036107eb5760006040517f96c6fd1e0000000000000000000000000000000000000000000000000000000081526004016107e29190611067565b60405180910390fd5b600073ffffffffffffffffffffffffffffffffffffffff168273ffffffffffffffffffffffffffffffffffffffff160361085d5760006040517fec442f050000000000000000000000000000000000000000000000000000000081526004016108549190611067565b60405180910390fd5b610868838383610b91565b505050565b6108756106ca565b73ffffffffffffffffffffffffffffffffffffffff166108936104de565b73ffffffffffffffffffffffffffffffffffffffff16146108f2576108b66106ca565b6040517f118cdaa70000000000000000000000000000000000000000000000000000000081526004016108e99190611067565b60405180910390fd5b565b6000600560009054906101000a900473ffffffffffffffffffffffffffffffffffffffff16905081600560006101000a81548173ffffffffffffffffffffffffffffffffffffffff021916908373ffffffffffffffffffffffffffffffffffffffff1602179055508173ffffffffffffffffffffffffffffffffffffffff168173ffffffffffffffffffffffffffffffffffffffff167f8be0079c531659141344cd1fd0a4f28419497f9722a3daafe3b4186f6b6457e060405160405180910390a35050565b600073ffffffffffffffffffffffffffffffffffffffff168473ffffffffffffffffffffffffffffffffffffffff1603610a2c5760006040517fe602df05000000000000000000000000000000000000000000000000000000008152600401610a239190611067565b60405180910390fd5b600073ffffffffffffffffffffffffffffffffffffffff168373ffffffffffffffffffffffffffffffffffffffff1603610a9e5760006040517f94280d62000000000000000000000000000000000000000000000000000000008152600401610a959190611067565b60405180910390fd5b81600160008673ffffffffffffffffffffffffffffffffffffffff1673ffffffffffffffffffffffffffffffffffffffff16815260200190815260200160002060008573ffffffffffffffffffffffffffffffffffffffff1673ffffffffffffffffffffffffffffffffffffffff168152602001908152602001600020819055508015610b8b578273ffffffffffffffffffffffffffffffffffffffff168473ffffffffffffffffffffffffffffffffffffffff167f8c5be1e5ebec7d5bd14f71427d1e84f3dd0314c0f7b2291e5b200ac8c7c3b92584604051610b829190610f86565b60405180910390a35b50505050565b600073ffffffffffffffffffffffffffffffffffffffff168373ffffffffffffffffffffffffffffffffffffffff1603610be3578060026000828254610bd79190611188565b92505081905550610cb6565b60008060008573ffffffffffffffffffffffffffffffffffffffff1673ffffffffffffffffffffffffffffffffffffffff16815260200190815260200160002054905081811015610c6f578381836040517fe450d38c000000000000000000000000000000000000000000000000000000008152600401610c6693929190611122565b60405180910390fd5b8181036000808673ffffffffffffffffffffffffffffffffffffffff1673ffffffffffffffffffffffffffffffffffffffff16815260200190815260200160002081905550505b600073ffffffffffffffffffffffffffffffffffffffff168273ffffffffffffffffffffffffffffffffffffffff1603610cff5780600260008282540392505081905550610d4c565b806000808473ffffffffffffffffffffffffffffffffffffffff1673ffffffffffffffffffffffffffffffffffffffff168152602001908152602001600020600082825401925050819055505b8173ffffffffffffffffffffffffffffffffffffffff168373ffffffffffffffffffffffffffffffffffffffff167fddf252ad1be2c89b69c2b068fc378daa952ba7f163c4a11628f55a4df523b3ef83604051610da99190610f86565b60405180910390a3505050565b600081519050919050565b600082825260208201905092915050565b60005b83811015610df0578082015181840152602081019050610dd5565b60008484015250505050565b6000601f19601f8301169050919050565b6000610e1882610db6565b610e228185610dc1565b9350610e32818560208601610dd2565b610e3b81610dfc565b840191505092915050565b60006020820190508181036000830152610e608184610e0d565b905092915050565b600080fd5b600073ffffffffffffffffffffffffffffffffffffffff82169050919050565b6000610e9882610e6d565b9050919050565b610ea881610e8d565b8114610eb357600080fd5b50565b600081359050610ec581610e9f565b92915050565b6000819050919050565b610ede81610ecb565b8114610ee957600080fd5b50565b600081359050610efb81610ed5565b92915050565b60008060408385031215610f1857610f17610e68565b5b6000610f2685828601610eb6565b9250506020610f3785828601610eec565b9150509250929050565b60008115159050919050565b610f5681610f41565b82525050565b6000602082019050610f716000830184610f4d565b92915050565b610f8081610ecb565b82525050565b6000602082019050610f9b6000830184610f77565b92915050565b600080600060608486031215610fba57610fb9610e68565b5b6000610fc886828701610eb6565b9350506020610fd986828701610eb6565b9250506040610fea86828701610eec565b9150509250925092565b600060ff82169050919050565b61100a81610ff4565b82525050565b60006020820190506110256000830184611001565b92915050565b60006020828403121561104157611040610e68565b5b600061104f84828501610eb6565b91505092915050565b61106181610e8d565b82525050565b600060208201905061107c6000830184611058565b92915050565b6000806040838503121561109957611098610e68565b5b60006110a785828601610eb6565b92505060206110b885828601610eb6565b9150509250929050565b7f4e487b7100000000000000000000000000000000000000000000000000000000600052602260045260246000fd5b6000600282049050600182168061110957607f821691505b60208210810361111c5761111b6110c2565b5b50919050565b60006060820190506111376000830186611058565b6111446020830185610f77565b6111516040830184610f77565b949350505050565b7f4e487b7100000000000000000000000000000000000000000000000000000000600052601160045260246000fd5b600061119382610ecb565b915061119e83610ecb565b92508282019050808211156111b6576111b5611159565b5b9291505056fea2646970667358221220d6d23a201d8546dfac944768f9a4ad3fd39c705738452108ad4e1533ae1875fc64736f6c63430008140033a26469706673582212204c90eff983387f80d52f5ff001d2596c0c7bfccc2d0c937477e3ec1f20fe706c64736f6c63430008140033",
  "linkReferences": {},
  "deployedLinkReferences": {}
}